{"abi":[{"type":"constructor","inputs":[{"name":"_router","type":"address","internalType":"address"},{"name":"_stableToken","type":"address","internalType":"address"},{"name":"_budgetTracker","type":"address","internalType":"address"}],"stateMutability":"nonpayable"},{"type":"function","name":"budgetTracker","inputs":[],"outputs":[{"name":"","type":"address","internalType":"contract BudgetTracker"}],"stateMutability":"view"},{"type":"function","name":"owner","inputs":[],"outputs":[{"name":"","type":"address","internalType":"address"}],"stateMutability":"view"},{"type":"function","name":"router","inputs":[],"outputs":[{"name":"","type":"address","internalType":"address"}],"stateMutability":"view"},{"type":"function","name":"setStableToken","inputs":[{"name":"newStable","type":"address","internalType":"address"}],"outputs":[],"stateMutability":"nonpayable"},{"type":"function","name":"stableToken","inputs":[],"outputs":[{"name":"","type":"address","internalType":"address"}],"stateMutability":"view"},{"type":"function","name":"swapToStable","inputs":[{"name":"fromToken","type":"address","internalType":"address"},{"name":"amountIn","type":"uint256","internalType":"uint256"},{"name":"amountOutMin","type":"uint256","internalType":"uint256"},{"name":"category","type":"string","internalType":"string"}],"outputs":[],"stateMutability":"nonpayable"},{"type":"event","name":"TokenSwapped","inputs":[{"name":"user","type":"address","indexed":true,"internalType":"address"},{"name":"fromToken","type":"address","indexed":true,"internalType":"address"},{"name":"amountIn","type":"uint256","indexed":false,"internalType":"uint256"},{"name":"amountOut","type":"uint256","indexed":false,"internalType":"uint256"},{"name":"category","type":"string","indexed":false,"internalType":"string"}],"anonymous":false},{"type":"error","name":"InvalidAmount","inputs":[]},{"type":"error","name":"SwapFailed","inputs":[]},{"type":"error","name":"Unauthorized","inputs":[]}],"bytecode":{"object":"0x608060405234801561000f575f80fd5b5060405161088e38038061088e83398101604081905261002e91610095565b5f80546001600160a01b03199081163317909155600180546001600160a01b039586169083161790556002805493851693821693909317909255600380549190931691161790556100d5565b80516001600160a01b0381168114610090575f80fd5b919050565b5f805f606084860312156100a7575f80fd5b6100b08461007a565b92506100be6020850161007a565b91506100cc6040850161007a565b90509250925092565b6107ac806100e25f395ff3fe608060405234801561000f575f80fd5b5060043610610060575f3560e01c80630da1f044146100645780638da5cb5b14610093578063a9d75b2b146100a5578063db1bc87b146100b8578063f887ea40146100cd578063fc9a5762146100e0575b5f80fd5b600354610077906001600160a01b031681565b6040516001600160a01b03909116815260200160405180910390f35b5f54610077906001600160a01b031681565b600254610077906001600160a01b031681565b6100cb6100c63660046104fa565b6100f3565b005b600154610077906001600160a01b031681565b6100cb6100ee36600461051a565b610161565b5f546001600160a01b0316331461013f5760405162461bcd60e51b815260206004820152600c60248201526b155b985d5d1a1bdc9a5e995960a21b604482015260640160405180910390fd5b600280546001600160a01b0319166001600160a01b0392909216919091179055565b835f036101815760405163162908e360e11b815260040160405180910390fd5b6040516323b872dd60e01b8152336004820152306024820152604481018590525f906001600160a01b038716906323b872dd906064016020604051808303815f875af11580156101d3573d5f803e3d5ffd5b505050506040513d601f19601f820116820180604052508101906101f791906105a6565b9050806102175760405163081ceff360e41b815260040160405180910390fd5b60015460405163095ea7b360e01b81526001600160a01b039182166004820152602481018790529087169063095ea7b3906044016020604051808303815f875af1158015610267573d5f803e3d5ffd5b505050506040513d601f19601f8201168201806040525081019061028b91906105a6565b9050806102ab5760405163081ceff360e41b815260040160405180910390fd5b6040805160028082526060820183525f9260208301908036833701905050905086815f815181106102de576102de6105d9565b6001600160a01b03928316602091820292909201015260025482519116908290600190811061030f5761030f6105d9565b6001600160a01b03909216602092830291909101909101525f610334426102586105ed565b6001546040516338ed173960e01b81529192505f916001600160a01b03909116906338ed173990610371908b908b90889033908990600401610612565b5f604051808303815f875af115801561038c573d5f803e3d5ffd5b505050506040513d5f823e601f3d908101601f191682016040526103b39190810190610681565b9050886001600160a01b0316336001600160a01b03167f6d65844b385d69082a207f772a175fbb682c5579941b0287fc36f9251676c8df8a846001815181106103fe576103fe6105d9565b60200260200101518a8a604051610418949392919061073a565b60405180910390a360035460025482516001600160a01b039283169263cf04969a9216908490600190811061044f5761044f6105d9565b60209081029190910101516040516001600160e01b031960e085901b1681526001600160a01b039092166004830152602482015260606044820152600a6064820152690546f6b656e20537761760b41b608482015260a4015f604051808303815f87803b1580156104be575f80fd5b505af11580156104d0573d5f803e3d5ffd5b50505050505050505050505050565b80356001600160a01b03811681146104f5575f80fd5b919050565b5f6020828403121561050a575f80fd5b610513826104df565b9392505050565b5f805f805f6080868803121561052e575f80fd5b610537866104df565b94506020860135935060408601359250606086013567ffffffffffffffff80821115610561575f80fd5b818801915088601f830112610574575f80fd5b813581811115610582575f80fd5b896020828501011115610593575f80fd5b9699959850939650602001949392505050565b5f602082840312156105b6575f80fd5b81518015158114610513575f80fd5b634e487b7160e01b5f52604160045260245ffd5b634e487b7160e01b5f52603260045260245ffd5b8082018082111561060c57634e487b7160e01b5f52601160045260245ffd5b92915050565b5f60a082018783526020878185015260a0604085015281875180845260c08601915082890193505f5b818110156106605784516001600160a01b03168352938301939183019160010161063b565b50506001600160a01b03969096166060850152505050608001529392505050565b5f6020808385031215610692575f80fd5b825167ffffffffffffffff808211156106a9575f80fd5b818501915085601f8301126106bc575f80fd5b8151818111156106ce576106ce6105c5565b8060051b604051601f19603f830116810181811085821117156106f3576106f36105c5565b604052918252848201925083810185019188831115610710575f80fd5b938501935b8285101561072e57845184529385019392850192610715565b98975050505050505050565b84815283602082015260606040820152816060820152818360808301375f818301608090810191909152601f909201601f19160101939250505056fea2646970667358221220a92d2990fe90052c326e201042e36aafa115677fb1862851d59d21207c8fa2c164736f6c63430008150033","linkReferences":{}},"methodIdentifiers":{"budgetTracker()":"0da1f044","owner()":"8da5cb5b","router()":"f887ea40","setStableToken(address)":"db1bc87b","stableToken()":"a9d75b2b","swapToStable(address,uint256,uint256,string)":"fc9a5762"},"id":26}