{"abi":[{"type":"constructor","inputs":[{"name":"_budgetTracker","type":"address","internalType":"address"}],"stateMutability":"nonpayable"},{"type":"function","name":"budgetTracker","inputs":[],"outputs":[{"name":"","type":"address","internalType":"contract BudgetTracker"}],"stateMutability":"view"},{"type":"function","name":"createInvoice","inputs":[{"name":"client","type":"address","internalType":"address"},{"name":"token","type":"address","internalType":"address"},{"name":"amount","type":"uint256","internalType":"uint256"},{"name":"dueDate","type":"uint256","internalType":"uint256"},{"name":"category","type":"string","internalType":"string"}],"outputs":[],"stateMutability":"nonpayable"},{"type":"function","name":"getDueInvoices","inputs":[],"outputs":[{"name":"","type":"tuple[]","internalType":"struct InvoiceManager.Invoice[]","components":[{"name":"id","type":"uint256","internalType":"uint256"},{"name":"client","type":"address","internalType":"address"},{"name":"token","type":"address","internalType":"address"},{"name":"amount","type":"uint256","internalType":"uint256"},{"name":"dueDate","type":"uint256","internalType":"uint256"},{"name":"paid","type":"bool","internalType":"bool"},{"name":"category","type":"string","internalType":"string"}]}],"stateMutability":"view"},{"type":"function","name":"getInvoice","inputs":[{"name":"invoiceId","type":"uint256","internalType":"uint256"}],"outputs":[{"name":"","type":"tuple","internalType":"struct InvoiceManager.Invoice","components":[{"name":"id","type":"uint256","internalType":"uint256"},{"name":"client","type":"address","internalType":"address"},{"name":"token","type":"address","internalType":"address"},{"name":"amount","type":"uint256","internalType":"uint256"},{"name":"dueDate","type":"uint256","internalType":"uint256"},{"name":"paid","type":"bool","internalType":"bool"},{"name":"category","type":"string","internalType":"string"}]}],"stateMutability":"view"},{"type":"function","name":"invoices","inputs":[{"name":"","type":"uint256","internalType":"uint256"}],"outputs":[{"name":"id","type":"uint256","internalType":"uint256"},{"name":"client","type":"address","internalType":"address"},{"name":"token","type":"address","internalType":"address"},{"name":"amount","type":"uint256","internalType":"uint256"},{"name":"dueDate","type":"uint256","internalType":"uint256"},{"name":"paid","type":"bool","internalType":"bool"},{"name":"category","type":"string","internalType":"string"}],"stateMutability":"view"},{"type":"function","name":"markAsPaid","inputs":[{"name":"invoiceId","type":"uint256","internalType":"uint256"}],"outputs":[],"stateMutability":"nonpayable"},{"type":"function","name":"nextInvoiceId","inputs":[],"outputs":[{"name":"","type":"uint256","internalType":"uint256"}],"stateMutability":"view"},{"type":"function","name":"owner","inputs":[],"outputs":[{"name":"","type":"address","internalType":"address"}],"stateMutability":"view"},{"type":"event","name":"InvoiceCreated","inputs":[{"name":"id","type":"uint256","indexed":true,"internalType":"uint256"},{"name":"client","type":"address","indexed":true,"internalType":"address"},{"name":"token","type":"address","indexed":true,"internalType":"address"},{"name":"amount","type":"uint256","indexed":false,"internalType":"uint256"},{"name":"dueDate","type":"uint256","indexed":false,"internalType":"uint256"},{"name":"category","type":"string","indexed":false,"internalType":"string"}],"anonymous":false},{"type":"event","name":"InvoicePaid","inputs":[{"name":"id","type":"uint256","indexed":true,"internalType":"uint256"}],"anonymous":false},{"type":"error","name":"InvalidAmount","inputs":[]},{"type":"error","name":"UnauthorizedPayer","inputs":[]}],"bytecode":{"object":"0x608060405234801561000f575f80fd5b50604051610fb3380380610fb383398101604081905261002e91610060565b5f8054336001600160a01b031991821617909155600380549091166001600160a01b039290921691909117905561008d565b5f60208284031215610070575f80fd5b81516001600160a01b0381168114610086575f80fd5b9392505050565b610f198061009a5f395ff3fe608060405234801561000f575f80fd5b5060043610610085575f3560e01c80636ff2a953116100585780636ff2a953146101145780637021cafe1461012b57806378909c8c146101405780638da5cb5b14610153575f80fd5b80630da1f044146100895780633a23cc0a146100b95780634c6f0d00146100d95780634e6d1405146100ee575b5f80fd5b60035461009c906001600160a01b031681565b6040516001600160a01b0390911681526020015b60405180910390f35b6100cc6100c7366004610a02565b610165565b6040516100b09190610ac6565b6100e1610271565b6040516100b09190610adf565b6101016100fc366004610a02565b6104b4565b6040516100b09796959493929190610b3f565b61011d60015481565b6040519081526020016100b0565b61013e610139366004610a02565b61058a565b005b61013e61014e366004610bae565b610710565b5f5461009c906001600160a01b031681565b61016d6109b7565b5f82815260026020818152604092839020835160e0810185528154815260018201546001600160a01b039081169382019390935292810154909116928201929092526003820154606082015260048201546080820152600582015460ff16151560a082015260068201805491929160c0840191906101ea90610c4c565b80601f016020809104026020016040519081016040528092919081815260200182805461021690610c4c565b80156102615780601f1061023857610100808354040283529160200191610261565b820191905f5260205f20905b81548152906001019060200180831161024457829003601f168201915b5050505050815250509050919050565b60605f805b6001548110156102d6575f8181526002602052604090206005015460ff161580156102b157505f818152600260205260409020600401544210155b156102c457816102c081610c98565b9250505b806102ce81610c98565b915050610276565b505f8167ffffffffffffffff8111156102f1576102f1610cb0565b60405190808252806020026020018201604052801561032a57816020015b6103176109b7565b81526020019060019003908161030f5790505b5090505f805b6001548110156104ab575f8181526002602052604090206005015460ff1615801561036b57505f818152600260205260409020600401544210155b15610499575f81815260026020818152604092839020835160e0810185528154815260018201546001600160a01b039081169382019390935292810154909116928201929092526003820154606082015260048201546080820152600582015460ff16151560a082015260068201805491929160c0840191906103ed90610c4c565b80601f016020809104026020016040519081016040528092919081815260200182805461041990610c4c565b80156104645780601f1061043b57610100808354040283529160200191610464565b820191905f5260205f20905b81548152906001019060200180831161044757829003601f168201915b50505050508152505083838151811061047f5761047f610cc4565b6020026020010181905250818061049590610c98565b9250505b806104a381610c98565b915050610330565b50909392505050565b600260208190525f9182526040909120805460018201549282015460038301546004840154600585015460068601805495976001600160a01b03908116979516959394929360ff909216929161050990610c4c565b80601f016020809104026020016040519081016040528092919081815260200182805461053590610c4c565b80156105805780601f1061055757610100808354040283529160200191610580565b820191905f5260205f20905b81548152906001019060200180831161056357829003601f168201915b5050505050905087565b5f818152600260205260409020600581015460ff16156105e05760405162461bcd60e51b815260206004820152600c60248201526b105b1c9958591e481c185a5960a21b60448201526064015b60405180910390fd5b60018101546001600160a01b031633148061060457505f546001600160a01b031633145b61063f5760405162461bcd60e51b815260206004820152600c60248201526b155b985d5d1a1bdc9a5e995960a21b60448201526064016105d7565b60058101805460ff19166001179055600380546002830154918301546001600160a01b039182169263cf04969a921690610678866108b2565b6040516020016106889190610cd8565b6040516020818303038152906040526040518463ffffffff1660e01b81526004016106b593929190610d08565b5f604051808303815f87803b1580156106cc575f80fd5b505af11580156106de573d5f803e3d5ffd5b50506040518492507f4d6cfd329415806d53db8988cd3c035f681754c229f8d7e5183507deae65cc1691505f90a25050565b835f036107305760405163162908e360e11b815260040160405180910390fd5b6040518060e001604052806001548152602001876001600160a01b03168152602001866001600160a01b031681526020018581526020018481526020015f1515815260200183838080601f0160208091040260200160405190810160405280939291908181526020018383808284375f92018290525093909452505060018054825260026020818152604093849020865181559086015192810180546001600160a01b03199081166001600160a01b03958616179091559386015191810180549094169190921617909155606083015160038201556080830151600482015560a083015160058201805460ff191691151591909117905560c0830151909150600682019061083e9082610d85565b50905050846001600160a01b0316866001600160a01b03166001547fc42cc137a7bf06606c7b59fc43c02dd34f7a86e23e35de7139fedca54b8616d08787878760405161088e9493929190610e41565b60405180910390a460018054905f6108a583610c98565b9190505550505050505050565b6060815f036108d85750506040805180820190915260018152600360fc1b602082015290565b815f5b811561090157806108eb81610c98565b91506108fa9050600a83610e91565b91506108db565b5f8167ffffffffffffffff81111561091b5761091b610cb0565b6040519080825280601f01601f191660200182016040528015610945576020820181803683370190505b5090505b84156109af5761095a600183610ea4565b9150610967600a86610ebd565b610972906030610ed0565b60f81b81838151811061098757610987610cc4565b60200101906001600160f81b03191690815f1a9053506109a8600a86610e91565b9450610949565b949350505050565b6040518060e001604052805f81526020015f6001600160a01b031681526020015f6001600160a01b031681526020015f81526020015f81526020015f15158152602001606081525090565b5f60208284031215610a12575f80fd5b5035919050565b5f5b83811015610a33578181015183820152602001610a1b565b50505f910152565b5f8151808452610a52816020860160208601610a19565b601f01601f19169290920160200192915050565b805182525f602082015160018060a01b0380821660208601528060408501511660408601525050606082015160608401526080820151608084015260a0820151151560a084015260c082015160e060c08501526109af60e0850182610a3b565b602081525f610ad86020830184610a66565b9392505050565b5f602080830181845280855180835260408601915060408160051b87010192508387015f5b82811015610b3257603f19888603018452610b20858351610a66565b94509285019290850190600101610b04565b5092979650505050505050565b8781526001600160a01b03878116602083015286166040820152606081018590526080810184905282151560a082015260e060c082018190525f90610b8690830184610a3b565b9998505050505050505050565b80356001600160a01b0381168114610ba9575f80fd5b919050565b5f805f805f8060a08789031215610bc3575f80fd5b610bcc87610b93565b9550610bda60208801610b93565b94506040870135935060608701359250608087013567ffffffffffffffff80821115610c04575f80fd5b818901915089601f830112610c17575f80fd5b813581811115610c25575f80fd5b8a6020828501011115610c36575f80fd5b6020830194508093505050509295509295509295565b600181811c90821680610c6057607f821691505b602082108103610c7e57634e487b7160e01b5f52602260045260245ffd5b50919050565b634e487b7160e01b5f52601160045260245ffd5b5f60018201610ca957610ca9610c84565b5060010190565b634e487b7160e01b5f52604160045260245ffd5b634e487b7160e01b5f52603260045260245ffd5b68496e766f696365202360b81b81525f8251610cfb816009850160208701610a19565b9190910160090192915050565b60018060a01b0384168152826020820152606060408201525f610d2e6060830184610a3b565b95945050505050565b601f821115610d80575f81815260208120601f850160051c81016020861015610d5d5750805b601f850160051c820191505b81811015610d7c57828155600101610d69565b5050505b505050565b815167ffffffffffffffff811115610d9f57610d9f610cb0565b610db381610dad8454610c4c565b84610d37565b602080601f831160018114610de6575f8415610dcf5750858301515b5f19600386901b1c1916600185901b178555610d7c565b5f85815260208120601f198616915b82811015610e1457888601518255948401946001909101908401610df5565b5085821015610e3157878501515f19600388901b60f8161c191681555b5050505050600190811b01905550565b84815283602082015260606040820152816060820152818360808301375f818301608090810191909152601f909201601f191601019392505050565b634e487b7160e01b5f52601260045260245ffd5b5f82610e9f57610e9f610e7d565b500490565b81810381811115610eb757610eb7610c84565b92915050565b5f82610ecb57610ecb610e7d565b500690565b80820180821115610eb757610eb7610c8456fea2646970667358221220d07d74208e9591547bf1bdf34a0fa9eb256fde3a04f55f6a7f00baf31e9cbd4564736f6c63430008150033","linkReferences":{}},"methodIdentifiers":{"budgetTracker()":"0da1f044","createInvoice(address,address,uint256,uint256,string)":"78909c8c","getDueInvoices()":"4c6f0d00","getInvoice(uint256)":"3a23cc0a","invoices(uint256)":"4e6d1405","markAsPaid(uint256)":"7021cafe","nextInvoiceId()":"6ff2a953","owner()":"8da5cb5b"},"id":24}