{"abi":[{"type":"constructor","inputs":[],"stateMutability":"nonpayable"},{"type":"function","name":"addExpense","inputs":[{"name":"token","type":"address","internalType":"address"},{"name":"amount","type":"uint256","internalType":"uint256"},{"name":"category","type":"string","internalType":"string"},{"name":"notes","type":"string","internalType":"string"}],"outputs":[],"stateMutability":"nonpayable"},{"type":"function","name":"approveToken","inputs":[{"name":"token","type":"address","internalType":"address"},{"name":"approved","type":"bool","internalType":"bool"}],"outputs":[],"stateMutability":"nonpayable"},{"type":"function","name":"getCategoryBudget","inputs":[{"name":"category","type":"string","internalType":"string"}],"outputs":[{"name":"","type":"tuple","internalType":"struct ExpenseTracker.CategoryBudget","components":[{"name":"limit","type":"uint256","internalType":"uint256"},{"name":"spent","type":"uint256","internalType":"uint256"},{"name":"month","type":"uint256","internalType":"uint256"}]}],"stateMutability":"view"},{"type":"function","name":"getExpenses","inputs":[],"outputs":[{"name":"","type":"tuple[]","internalType":"struct ExpenseTracker.Expense[]","components":[{"name":"token","type":"address","internalType":"address"},{"name":"amount","type":"uint256","internalType":"uint256"},{"name":"category","type":"string","internalType":"string"},{"name":"date","type":"uint256","internalType":"uint256"},{"name":"notes","type":"string","internalType":"string"}]}],"stateMutability":"view"},{"type":"function","name":"isTokenApproved","inputs":[{"name":"user","type":"address","internalType":"address"},{"name":"token","type":"address","internalType":"address"}],"outputs":[{"name":"","type":"bool","internalType":"bool"}],"stateMutability":"view"},{"type":"function","name":"setCategoryBudget","inputs":[{"name":"category","type":"string","internalType":"string"},{"name":"limit","type":"uint256","internalType":"uint256"}],"outputs":[],"stateMutability":"nonpayable"},{"type":"event","name":"CategoryBudgetSet","inputs":[{"name":"user","type":"address","indexed":true,"internalType":"address"},{"name":"category","type":"string","indexed":false,"internalType":"string"},{"name":"limit","type":"uint256","indexed":false,"internalType":"uint256"}],"anonymous":false},{"type":"event","name":"ExpenseAdded","inputs":[{"name":"user","type":"address","indexed":true,"internalType":"address"},{"name":"token","type":"address","indexed":true,"internalType":"address"},{"name":"amount","type":"uint256","indexed":false,"internalType":"uint256"},{"name":"category","type":"string","indexed":false,"internalType":"string"},{"name":"date","type":"uint256","indexed":false,"internalType":"uint256"}],"anonymous":false},{"type":"event","name":"TokenApproved","inputs":[{"name":"user","type":"address","indexed":true,"internalType":"address"},{"name":"token","type":"address","indexed":true,"internalType":"address"},{"name":"approved","type":"bool","indexed":false,"internalType":"bool"}],"anonymous":false},{"type":"error","name":"CategoryLimitExceeded","inputs":[{"name":"category","type":"string","internalType":"string"},{"name":"limit","type":"uint256","internalType":"uint256"},{"name":"attempted","type":"uint256","internalType":"uint256"}]},{"type":"error","name":"InvalidAmount","inputs":[]},{"type":"error","name":"TransferFailed","inputs":[]},{"type":"error","name":"UnapprovedToken","inputs":[{"name":"token","type":"address","internalType":"address"}]}],"bytecode":{"object":"0x608060405234801561000f575f80fd5b50610c2b8061001d5f395ff3fe608060405234801561000f575f80fd5b5060043610610060575f3560e01c80630c0e0cef146100645780633dd211c01461007957806383a36a911461008c578063b77ab73b146100aa578063ba7b1281146100bd578063df2eec7a146100e0575b5f80fd5b61007761007236600461070a565b610115565b005b610077610087366004610788565b610180565b6100946101f5565b6040516100a19190610813565b60405180910390f35b6100776100b83660046108c3565b6103a5565b6100d06100cb366004610947565b610648565b60405190151581526020016100a1565b6100f36100ee366004610978565b610677565b60408051825181526020808401519082015291810151908201526060016100a1565b335f8181526002602090815260408083206001600160a01b03871680855290835292819020805460ff191686151590811790915590519081529192917f2784db7c10de00e8c3890c487e9e79afeb92e0bf821da2cbd6f93c8405eae716910160405180910390a35050565b335f908152600160205260409081902090518291906101a290869086906109b7565b9081526040519081900360200181209190915533907fb5d8acf536c4b8d083f20560e76e3b2c64a9ba6f3e346e115e3dd132fa305983906101e8908690869086906109ee565b60405180910390a2505050565b335f90815260208181526040808320805482518185028101850190935280835260609492939192909184015b8282101561039c575f8481526020908190206040805160a0810182526005860290920180546001600160a01b031683526001810154938301939093526002830180549293929184019161027390610a11565b80601f016020809104026020016040519081016040528092919081815260200182805461029f90610a11565b80156102ea5780601f106102c1576101008083540402835291602001916102ea565b820191905f5260205f20905b8154815290600101906020018083116102cd57829003601f168201915b505050505081526020016003820154815260200160048201805461030d90610a11565b80601f016020809104026020016040519081016040528092919081815260200182805461033990610a11565b80156103845780601f1061035b57610100808354040283529160200191610384565b820191905f5260205f20905b81548152906001019060200180831161036757829003601f168201915b50505050508152505081526020019060010190610221565b50505050905090565b845f036103c55760405163162908e360e11b815260040160405180910390fd5b335f9081526002602090815260408083206001600160a01b038a16845290915290205460ff166104185760405163029fee6760e31b81526001600160a01b03871660048201526024015b60405180910390fd5b335f90815260016020526040808220905161043690879087906109b7565b90815260405190819003602001902090505f61045562278d0042610a49565b90508160020154811115610471575f6001830155600282018190555b81541580159061049057508154600183015461048e908990610a68565b115b156104b757815460405163891c408360e01b815261040f9188918891908b90600401610a87565b86826001015f8282546104ca9190610a68565b9091555050335f9081526020818152604091829020825160a0810184526001600160a01b038c1681528083018b90528351601f8a0184900484028101840185528981529193909290830191908a908a90819084018382808284375f920191909152505050908252504260208083019190915260408051601f890183900483028101830182528881529201919088908890819084018382808284375f920182905250939094525050835460018082018655948252602091829020845160059092020180546001600160a01b0319166001600160a01b03909216919091178155908301519381019390935550604081015190919060028201906105cb9082610b0f565b5060608201516003820155608082015160048201906105ea9082610b0f565b505050876001600160a01b0316336001600160a01b03167f1aef14b88bcc1f044d58e105b54643cf74835ee0946097162a7d83761f9aac09898989426040516106369493929190610bcb565b60405180910390a35050505050505050565b6001600160a01b038083165f9081526002602090815260408083209385168352929052205460ff165b92915050565b61069860405180606001604052805f81526020015f81526020015f81525090565b335f908152600160205260409081902090516106b790859085906109b7565b908152604080519182900360209081018320606084018352805484526001810154918401919091526002015490820152905092915050565b80356001600160a01b0381168114610705575f80fd5b919050565b5f806040838503121561071b575f80fd5b610724836106ef565b915060208301358015158114610738575f80fd5b809150509250929050565b5f8083601f840112610753575f80fd5b50813567ffffffffffffffff81111561076a575f80fd5b602083019150836020828501011115610781575f80fd5b9250929050565b5f805f6040848603121561079a575f80fd5b833567ffffffffffffffff8111156107b0575f80fd5b6107bc86828701610743565b909790965060209590950135949350505050565b5f81518084525f5b818110156107f4576020818501810151868301820152016107d8565b505f602082860101526020601f19601f83011685010191505092915050565b5f6020808301818452808551808352604092508286019150828160051b8701018488015f5b838110156108b557888303603f19018552815180516001600160a01b0316845287810151888501528681015160a088860181905290610879828701826107d0565b9150506060808301518187015250608080830151925085820381870152506108a181836107d0565b968901969450505090860190600101610838565b509098975050505050505050565b5f805f805f80608087890312156108d8575f80fd5b6108e1876106ef565b955060208701359450604087013567ffffffffffffffff80821115610904575f80fd5b6109108a838b01610743565b90965094506060890135915080821115610928575f80fd5b5061093589828a01610743565b979a9699509497509295939492505050565b5f8060408385031215610958575f80fd5b610961836106ef565b915061096f602084016106ef565b90509250929050565b5f8060208385031215610989575f80fd5b823567ffffffffffffffff81111561099f575f80fd5b6109ab85828601610743565b90969095509350505050565b818382375f9101908152919050565b81835281816020850137505f828201602090810191909152601f909101601f19169091010190565b604081525f610a016040830185876109c6565b9050826020830152949350505050565b600181811c90821680610a2557607f821691505b602082108103610a4357634e487b7160e01b5f52602260045260245ffd5b50919050565b5f82610a6357634e487b7160e01b5f52601260045260245ffd5b500490565b8082018082111561067157634e487b7160e01b5f52601160045260245ffd5b606081525f610a9a6060830186886109c6565b6020830194909452506040015292915050565b634e487b7160e01b5f52604160045260245ffd5b601f821115610b0a575f81815260208120601f850160051c81016020861015610ae75750805b601f850160051c820191505b81811015610b0657828155600101610af3565b5050505b505050565b815167ffffffffffffffff811115610b2957610b29610aad565b610b3d81610b378454610a11565b84610ac1565b602080601f831160018114610b70575f8415610b595750858301515b5f19600386901b1c1916600185901b178555610b06565b5f85815260208120601f198616915b82811015610b9e57888601518255948401946001909101908401610b7f565b5085821015610bbb57878501515f19600388901b60f8161c191681555b5050505050600190811b01905550565b848152606060208201525f610be46060830185876109c6565b90508260408301529594505050505056fea26469706673582212201aa2bea2602852af06515b1ff9f57e4e1cf7a35a2c2556fc5aecd8ee51cc2db064736f6c63430008150033","linkReferences":{}},"methodIdentifiers":{"addExpense(address,uint256,string,string)":"b77ab73b","approveToken(address,bool)":"0c0e0cef","getCategoryBudget(string)":"df2eec7a","getExpenses()":"83a36a91","isTokenApproved(address,address)":"ba7b1281","setCategoryBudget(string,uint256)":"3dd211c0"},"id":22}