{"abi":[{"type":"constructor","inputs":[{"name":"_budgetTracker","type":"address","internalType":"address"},{"name":"_invoiceManager","type":"address","internalType":"address"}],"stateMutability":"nonpayable"},{"type":"function","name":"budgetTracker","inputs":[],"outputs":[{"name":"","type":"address","internalType":"contract BudgetTracker"}],"stateMutability":"view"},{"type":"function","name":"getPayments","inputs":[],"outputs":[{"name":"","type":"tuple[]","internalType":"struct PaymentTracker.Payment[]","components":[{"name":"invoiceId","type":"uint256","internalType":"uint256"},{"name":"token","type":"address","internalType":"address"},{"name":"amount","type":"uint256","internalType":"uint256"},{"name":"payer","type":"address","internalType":"address"},{"name":"timestamp","type":"uint256","internalType":"uint256"}]}],"stateMutability":"view"},{"type":"function","name":"invoiceManager","inputs":[],"outputs":[{"name":"","type":"address","internalType":"contract InvoiceManager"}],"stateMutability":"view"},{"type":"function","name":"payments","inputs":[{"name":"index","type":"uint256","internalType":"uint256"}],"outputs":[{"name":"","type":"tuple","internalType":"struct PaymentTracker.Payment","components":[{"name":"invoiceId","type":"uint256","internalType":"uint256"},{"name":"token","type":"address","internalType":"address"},{"name":"amount","type":"uint256","internalType":"uint256"},{"name":"payer","type":"address","internalType":"address"},{"name":"timestamp","type":"uint256","internalType":"uint256"}]}],"stateMutability":"view"},{"type":"function","name":"recordPayment","inputs":[{"name":"invoiceId","type":"uint256","internalType":"uint256"}],"outputs":[],"stateMutability":"payable"},{"type":"function","name":"recordTokenPayment","inputs":[{"name":"invoiceId","type":"uint256","internalType":"uint256"},{"name":"token","type":"address","internalType":"address"},{"name":"amount","type":"uint256","internalType":"uint256"}],"outputs":[],"stateMutability":"nonpayable"},{"type":"function","name":"totalPaid","inputs":[{"name":"","type":"uint256","internalType":"uint256"},{"name":"","type":"address","internalType":"address"}],"outputs":[{"name":"","type":"uint256","internalType":"uint256"}],"stateMutability":"view"},{"type":"event","name":"PaymentReceived","inputs":[{"name":"invoiceId","type":"uint256","indexed":true,"internalType":"uint256"},{"name":"token","type":"address","indexed":true,"internalType":"address"},{"name":"payer","type":"address","indexed":false,"internalType":"address"},{"name":"amount","type":"uint256","indexed":false,"internalType":"uint256"}],"anonymous":false},{"type":"error","name":"InvalidAmount","inputs":[]},{"type":"error","name":"InvoiceNotFound","inputs":[]},{"type":"error","name":"TokenMismatch","inputs":[]},{"type":"error","name":"TransferFailed","inputs":[]},{"type":"error","name":"UnapprovedToken","inputs":[{"name":"token","type":"address","internalType":"address"}]}],"bytecode":{"object":"0x608060405234801561000f575f80fd5b50604051610d9b380380610d9b83398101604081905261002e9161007a565b600280546001600160a01b039384166001600160a01b031991821617909155600380549290931691161790556100ab565b80516001600160a01b0381168114610075575f80fd5b919050565b5f806040838503121561008b575f80fd5b6100948361005f565b91506100a26020840161005f565b90509250929050565b610ce3806100b85f395ff3fe60806040526004361061006e575f3560e01c8063bb44617a1161004c578063bb44617a146100f9578063d56bd1421461011a578063deeac47e1461013b578063fefa92911461017f575f80fd5b80630da1f044146100725780633d8cad90146100ae57806387d81789146100cd575b5f80fd5b34801561007d575f80fd5b50600254610091906001600160a01b031681565b6040516001600160a01b0390911681526020015b60405180910390f35b3480156100b9575f80fd5b50600354610091906001600160a01b031681565b3480156100d8575f80fd5b506100ec6100e7366004610964565b610192565b6040516100a591906109b9565b348015610104575f80fd5b506101186101133660046109e4565b61028f565b005b348015610125575f80fd5b5061012e6104bc565b6040516100a59190610a19565b348015610146575f80fd5b50610171610155366004610a66565b600160209081525f928352604080842090915290825290205481565b6040519081526020016100a5565b61011861018d366004610964565b610552565b6101d16040518060a001604052805f81526020015f6001600160a01b031681526020015f81526020015f6001600160a01b031681526020015f81525090565b5f54821061021c5760405162461bcd60e51b8152602060048201526013602482015272496e646578206f7574206f6620626f756e647360681b60448201526064015b60405180910390fd5b5f828154811061022e5761022e610a94565b5f9182526020918290206040805160a08101825260059093029091018054835260018101546001600160a01b039081169484019490945260028101549183019190915260038101549092166060820152600490910154608082015292915050565b805f036102af5760405163162908e360e11b815260040160405180910390fd5b600254604051632d5ad3d560e01b81526001600160a01b03848116600483015290911690632d5ad3d590602401602060405180830381865afa1580156102f7573d5f803e3d5ffd5b505050506040513d601f19601f8201168201806040525081019061031b9190610abc565b6103435760405163029fee6760e31b81526001600160a01b0383166004820152602401610213565b600354604051631d11e60560e11b8152600481018590525f916001600160a01b031690633a23cc0a906024015f60405180830381865afa158015610389573d5f803e3d5ffd5b505050506040513d5f823e601f3d908101601f191682016040526103b09190810190610bd5565b60208101519091506001600160a01b03166103de57604051634d5c803960e11b815260040160405180910390fd5b826001600160a01b031681604001516001600160a01b0316146104145760405163936bb5ad60e01b815260040160405180910390fd5b6040516323b872dd60e01b8152336004820152306024820152604481018390525f906001600160a01b038516906323b872dd906064016020604051808303815f875af1158015610466573d5f803e3d5ffd5b505050506040513d601f19601f8201168201806040525081019061048a9190610abc565b9050806104aa576040516312171d8360e31b815260040160405180910390fd5b6104b5858585610648565b5050505050565b60605f805480602002602001604051908101604052809291908181526020015f905b82821015610549575f8481526020908190206040805160a08101825260058602909201805483526001808201546001600160a01b03908116858701526002830154938501939093526003820154909216606084015260040154608083015290835290920191016104de565b50505050905090565b345f036105725760405163162908e360e11b815260040160405180910390fd5b600354604051631d11e60560e11b8152600481018390525f916001600160a01b031690633a23cc0a906024015f60405180830381865afa1580156105b8573d5f803e3d5ffd5b505050506040513d5f823e601f3d908101601f191682016040526105df9190810190610bd5565b60208101519091506001600160a01b031661060d57604051634d5c803960e11b815260040160405180910390fd5b60408101516001600160a01b0316156106395760405163936bb5ad60e01b815260040160405180910390fd5b610644825f34610648565b5050565b6040805160a0810182528481526001600160a01b038085166020808401828152848601878152336060870190815242608088019081525f805460018181018355828052995160059091027f290decd9548b62a8d60345a988386fc84ba6bc95484008f6362f93160ef3e56381019190915594517f290decd9548b62a8d60345a988386fc84ba6bc95484008f6362f93160ef3e56486018054918a166001600160a01b031992831617905593517f290decd9548b62a8d60345a988386fc84ba6bc95484008f6362f93160ef3e56586015591517f290decd9548b62a8d60345a988386fc84ba6bc95484008f6362f93160ef3e5668501805491909816931692909217909555517f290decd9548b62a8d60345a988386fc84ba6bc95484008f6362f93160ef3e567909101558783529283528382209082529091529081208054839290610794908490610c8e565b90915550506002546040516367824b4d60e11b81526001600160a01b0384811660048301526024820184905260606044830152600f60648301526e125b9d9bda58d94814185e5b595b9d608a1b60848301529091169063cf04969a9060a4015f604051808303815f87803b15801561080a575f80fd5b505af115801561081c573d5f803e3d5ffd5b5050600354604051631d11e60560e11b8152600481018790525f93506001600160a01b039091169150633a23cc0a906024015f60405180830381865afa158015610868573d5f803e3d5ffd5b505050506040513d5f823e601f3d908101601f1916820160405261088f9190810190610bd5565b60608101515f8681526001602090815260408083206001600160a01b03891684529091529020549192501161091857600354604051633810e57f60e11b8152600481018690526001600160a01b0390911690637021cafe906024015f604051808303815f87803b158015610901575f80fd5b505af1158015610913573d5f803e3d5ffd5b505050505b60408051338152602081018490526001600160a01b0385169186917f3df2dc7c3520e3eae9e0204ceb677606a01bb80f05dbbbc6613e951fe194faac910160405180910390a350505050565b5f60208284031215610974575f80fd5b5035919050565b805182526020808201516001600160a01b03908116918401919091526040808301519084015260608083015190911690830152608090810151910152565b60a081016109c7828461097b565b92915050565b6001600160a01b03811681146109e1575f80fd5b50565b5f805f606084860312156109f6575f80fd5b833592506020840135610a08816109cd565b929592945050506040919091013590565b602080825282518282018190525f9190848201906040850190845b81811015610a5a57610a4783855161097b565b9284019260a09290920191600101610a34565b50909695505050505050565b5f8060408385031215610a77575f80fd5b823591506020830135610a89816109cd565b809150509250929050565b634e487b7160e01b5f52603260045260245ffd5b80518015158114610ab7575f80fd5b919050565b5f60208284031215610acc575f80fd5b610ad582610aa8565b9392505050565b634e487b7160e01b5f52604160045260245ffd5b60405160e0810167ffffffffffffffff81118282101715610b1357610b13610adc565b60405290565b604051601f8201601f1916810167ffffffffffffffff81118282101715610b4257610b42610adc565b604052919050565b8051610ab7816109cd565b5f82601f830112610b64575f80fd5b815167ffffffffffffffff811115610b7e57610b7e610adc565b6020610b92601f8301601f19168201610b19565b8281528582848701011115610ba5575f80fd5b5f5b83811015610bc2578581018301518282018401528201610ba7565b505f928101909101919091529392505050565b5f60208284031215610be5575f80fd5b815167ffffffffffffffff80821115610bfc575f80fd5b9083019060e08286031215610c0f575f80fd5b610c17610af0565b82518152610c2760208401610b4a565b6020820152610c3860408401610b4a565b60408201526060830151606082015260808301516080820152610c5d60a08401610aa8565b60a082015260c083015182811115610c73575f80fd5b610c7f87828601610b55565b60c08301525095945050505050565b808201808211156109c757634e487b7160e01b5f52601160045260245ffdfea2646970667358221220609ddbbf3a071881c155d51be36d664cbaa1641051842fa5001b2584d7ff7a4f64736f6c63430008150033","linkReferences":{}},"methodIdentifiers":{"budgetTracker()":"0da1f044","getPayments()":"d56bd142","invoiceManager()":"3d8cad90","payments(uint256)":"87d81789","recordPayment(uint256)":"fefa9291","recordTokenPayment(uint256,address,uint256)":"bb44617a","totalPaid(uint256,address)":"deeac47e"},"id":25}