{"abi":[{"type":"receive","stateMutability":"payable"},{"type":"function","name":"addExpense","inputs":[{"name":"token","type":"address","internalType":"address"},{"name":"amount","type":"uint256","internalType":"uint256"},{"name":"category","type":"string","internalType":"string"},{"name":"notes","type":"string","internalType":"string"}],"outputs":[],"stateMutability":"nonpayable"},{"type":"function","name":"addIncome","inputs":[{"name":"token","type":"address","internalType":"address"},{"name":"amount","type":"uint256","internalType":"uint256"},{"name":"source","type":"string","internalType":"string"}],"outputs":[],"stateMutability":"nonpayable"},{"type":"function","name":"approveToken","inputs":[{"name":"token","type":"address","internalType":"address"},{"name":"approved","type":"bool","internalType":"bool"}],"outputs":[],"stateMutability":"nonpayable"},{"type":"function","name":"depositTokens","inputs":[{"name":"token","type":"address","internalType":"address"},{"name":"amount","type":"uint256","internalType":"uint256"}],"outputs":[],"stateMutability":"payable"},{"type":"function","name":"getApprovedTokens","inputs":[],"outputs":[{"name":"","type":"address[]","internalType":"address[]"}],"stateMutability":"view"},{"type":"function","name":"getBudgetSummary","inputs":[],"outputs":[{"name":"","type":"tuple","internalType":"struct BudgetTracker.BudgetSummary","components":[{"name":"balances","type":"tuple[]","internalType":"struct BudgetTracker.TokenBalance[]","components":[{"name":"token","type":"address","internalType":"address"},{"name":"balance","type":"uint256","internalType":"uint256"}]},{"name":"totalExpenseCategories","type":"uint256","internalType":"uint256"},{"name":"totalIncomeSources","type":"uint256","internalType":"uint256"},{"name":"monthlyExpenseLimit","type":"uint256","internalType":"uint256"},{"name":"savingsGoal","type":"uint256","internalType":"uint256"}]}],"stateMutability":"view"},{"type":"function","name":"getCategoryBudget","inputs":[{"name":"category","type":"string","internalType":"string"}],"outputs":[{"name":"","type":"tuple","internalType":"struct ExpenseTracker.CategoryBudget","components":[{"name":"limit","type":"uint256","internalType":"uint256"},{"name":"spent","type":"uint256","internalType":"uint256"},{"name":"month","type":"uint256","internalType":"uint256"}]}],"stateMutability":"view"},{"type":"function","name":"getExpenses","inputs":[],"outputs":[{"name":"","type":"tuple[]","internalType":"struct ExpenseTracker.Expense[]","components":[{"name":"token","type":"address","internalType":"address"},{"name":"amount","type":"uint256","internalType":"uint256"},{"name":"category","type":"string","internalType":"string"},{"name":"date","type":"uint256","internalType":"uint256"},{"name":"notes","type":"string","internalType":"string"}]}],"stateMutability":"view"},{"type":"function","name":"getIncomes","inputs":[],"outputs":[{"name":"","type":"tuple[]","internalType":"struct IncomeTracker.Income[]","components":[{"name":"token","type":"address","internalType":"address"},{"name":"amount","type":"uint256","internalType":"uint256"},{"name":"source","type":"string","internalType":"string"},{"name":"date","type":"uint256","internalType":"uint256"},{"name":"isRecurring","type":"bool","internalType":"bool"},{"name":"frequency","type":"uint256","internalType":"uint256"}]}],"stateMutability":"view"},{"type":"function","name":"getRecurringIncome","inputs":[{"name":"source","type":"string","internalType":"string"}],"outputs":[{"name":"","type":"tuple","internalType":"struct IncomeTracker.RecurringIncome","components":[{"name":"expectedAmount","type":"uint256","internalType":"uint256"},{"name":"frequency","type":"uint256","internalType":"uint256"},{"name":"lastReceived","type":"uint256","internalType":"uint256"},{"name":"isActive","type":"bool","internalType":"bool"}]}],"stateMutability":"view"},{"type":"function","name":"isApprovedToken","inputs":[{"name":"token","type":"address","internalType":"address"}],"outputs":[{"name":"","type":"bool","internalType":"bool"}],"stateMutability":"view"},{"type":"function","name":"isTokenApproved","inputs":[{"name":"user","type":"address","internalType":"address"},{"name":"token","type":"address","internalType":"address"}],"outputs":[{"name":"","type":"bool","internalType":"bool"}],"stateMutability":"view"},{"type":"function","name":"monthlyExpenseLimits","inputs":[{"name":"","type":"address","internalType":"address"}],"outputs":[{"name":"","type":"uint256","internalType":"uint256"}],"stateMutability":"view"},{"type":"function","name":"registerRecurringIncome","inputs":[{"name":"source","type":"string","internalType":"string"},{"name":"expectedAmount","type":"uint256","internalType":"uint256"},{"name":"frequency","type":"uint256","internalType":"uint256"}],"outputs":[],"stateMutability":"nonpayable"},{"type":"function","name":"savingsGoals","inputs":[{"name":"","type":"address","internalType":"address"}],"outputs":[{"name":"","type":"uint256","internalType":"uint256"}],"stateMutability":"view"},{"type":"function","name":"setCategoryBudget","inputs":[{"name":"category","type":"string","internalType":"string"},{"name":"limit","type":"uint256","internalType":"uint256"}],"outputs":[],"stateMutability":"nonpayable"},{"type":"function","name":"setMonthlyExpenseLimit","inputs":[{"name":"limit","type":"uint256","internalType":"uint256"}],"outputs":[],"stateMutability":"nonpayable"},{"type":"function","name":"setSavingsGoal","inputs":[{"name":"goal","type":"uint256","internalType":"uint256"}],"outputs":[],"stateMutability":"nonpayable"},{"type":"function","name":"updateRecurringIncome","inputs":[{"name":"source","type":"string","internalType":"string"},{"name":"isActive","type":"bool","internalType":"bool"}],"outputs":[],"stateMutability":"nonpayable"},{"type":"function","name":"withdrawTokens","inputs":[{"name":"token","type":"address","internalType":"address"},{"name":"amount","type":"uint256","internalType":"uint256"}],"outputs":[],"stateMutability":"nonpayable"},{"type":"event","name":"BudgetLimitSet","inputs":[{"name":"user","type":"address","indexed":true,"internalType":"address"},{"name":"limit","type":"uint256","indexed":false,"internalType":"uint256"}],"anonymous":false},{"type":"event","name":"CategoryBudgetSet","inputs":[{"name":"user","type":"address","indexed":true,"internalType":"address"},{"name":"category","type":"string","indexed":false,"internalType":"string"},{"name":"limit","type":"uint256","indexed":false,"internalType":"uint256"}],"anonymous":false},{"type":"event","name":"ExpenseAdded","inputs":[{"name":"user","type":"address","indexed":true,"internalType":"address"},{"name":"token","type":"address","indexed":true,"internalType":"address"},{"name":"amount","type":"uint256","indexed":false,"internalType":"uint256"},{"name":"category","type":"string","indexed":false,"internalType":"string"},{"name":"date","type":"uint256","indexed":false,"internalType":"uint256"}],"anonymous":false},{"type":"event","name":"IncomeAdded","inputs":[{"name":"user","type":"address","indexed":true,"internalType":"address"},{"name":"token","type":"address","indexed":true,"internalType":"address"},{"name":"amount","type":"uint256","indexed":false,"internalType":"uint256"},{"name":"source","type":"string","indexed":false,"internalType":"string"},{"name":"date","type":"uint256","indexed":false,"internalType":"uint256"},{"name":"isRecurring","type":"bool","indexed":false,"internalType":"bool"}],"anonymous":false},{"type":"event","name":"RecurringIncomeRegistered","inputs":[{"name":"user","type":"address","indexed":true,"internalType":"address"},{"name":"source","type":"string","indexed":false,"internalType":"string"},{"name":"expectedAmount","type":"uint256","indexed":false,"internalType":"uint256"},{"name":"frequency","type":"uint256","indexed":false,"internalType":"uint256"}],"anonymous":false},{"type":"event","name":"RecurringIncomeUpdated","inputs":[{"name":"user","type":"address","indexed":true,"internalType":"address"},{"name":"source","type":"string","indexed":false,"internalType":"string"},{"name":"isActive","type":"bool","indexed":false,"internalType":"bool"}],"anonymous":false},{"type":"event","name":"SavingsGoalSet","inputs":[{"name":"user","type":"address","indexed":true,"internalType":"address"},{"name":"goal","type":"uint256","indexed":false,"internalType":"uint256"}],"anonymous":false},{"type":"event","name":"TokenApproved","inputs":[{"name":"user","type":"address","indexed":true,"internalType":"address"},{"name":"token","type":"address","indexed":true,"internalType":"address"},{"name":"approved","type":"bool","indexed":false,"internalType":"bool"}],"anonymous":false},{"type":"event","name":"TokenDeposited","inputs":[{"name":"user","type":"address","indexed":true,"internalType":"address"},{"name":"token","type":"address","indexed":true,"internalType":"address"},{"name":"amount","type":"uint256","indexed":false,"internalType":"uint256"}],"anonymous":false},{"type":"event","name":"TokenWithdrawn","inputs":[{"name":"user","type":"address","indexed":true,"internalType":"address"},{"name":"token","type":"address","indexed":true,"internalType":"address"},{"name":"amount","type":"uint256","indexed":false,"internalType":"uint256"}],"anonymous":false},{"type":"error","name":"CategoryLimitExceeded","inputs":[{"name":"category","type":"string","internalType":"string"},{"name":"limit","type":"uint256","internalType":"uint256"},{"name":"attempted","type":"uint256","internalType":"uint256"}]},{"type":"error","name":"InsufficientBalance","inputs":[{"name":"token","type":"address","internalType":"address"},{"name":"requested","type":"uint256","internalType":"uint256"},{"name":"available","type":"uint256","internalType":"uint256"}]},{"type":"error","name":"InvalidAmount","inputs":[]},{"type":"error","name":"InvalidFrequency","inputs":[]},{"type":"error","name":"TransferFailed","inputs":[]},{"type":"error","name":"UnapprovedToken","inputs":[{"name":"token","type":"address","internalType":"address"}]}],"bytecode":{"object":"0x608060405234801561000f575f80fd5b506121d48061001d5f395ff3fe60806040526004361061011e575f3560e01c806366168bd71161009d578063b77ab73b11610062578063b77ab73b146103d7578063ba7b1281146103f6578063bfb6416a14610415578063cf04969a14610436578063df2eec7a14610455575f80fd5b806366168bd7146103355780636afc0c5f1461034857806382e13e481461036c57806383a36a911461038b5780638f517e6d146103ac575f80fd5b80632d5ad3d5116100e35780632d5ad3d51461025557806331a93e8a146102845780633dd211c0146102a35780634a6d9216146102c257806353ae5f1714610316575f80fd5b806306b091f9146101955780630c0a9f9d146101b45780630c0e0cef146101de578063245372a9146101fd5780632b4d33b41461021c575f80fd5b3661019157341561018f57335f90815260086020908152604080832083805290915281208054349290610152908490611710565b90915550506040513481525f9033907ff1444b5cad7ce70cb018d1b8edc8618fe303f3c7f034d8d572a6e27facbf2bef9060200160405180910390a35b005b5f80fd5b3480156101a0575f80fd5b5061018f6101af36600461173a565b610496565b3480156101bf575f80fd5b506101c86106bd565b6040516101d591906117b1565b60405180910390f35b3480156101e9575f80fd5b5061018f6101f8366004611868565b610726565b348015610208575f80fd5b5061018f6102173660046118e3565b61081d565b348015610227575f80fd5b5061024761023636600461192f565b60076020525f908152604090205481565b6040519081526020016101d5565b348015610260575f80fd5b5061027461026f36600461192f565b610921565b60405190151581526020016101d5565b34801561028f575f80fd5b5061018f61029e366004611951565b610995565b3480156102ae575f80fd5b5061018f6102bd366004611968565b6109e3565b3480156102cd575f80fd5b506102e16102dc3660046119af565b610a58565b6040516101d5919081518152602080830151908201526040808301519082015260609182015115159181019190915260800190565b348015610321575f80fd5b5061018f610330366004611951565b610aea565b61018f61034336600461173a565b610b2d565b348015610353575f80fd5b50604080515f815260208101918290526101d5916119ed565b348015610377575f80fd5b5061018f610386366004611a39565b610d44565b348015610396575f80fd5b5061039f610dbd565b6040516101d59190611a8b565b3480156103b7575f80fd5b506102476103c636600461192f565b60066020525f908152604090205481565b3480156103e2575f80fd5b5061018f6103f1366004611b2d565b610e21565b348015610401575f80fd5b50610274610410366004611bb2565b610f37565b348015610420575f80fd5b50610429611031565b6040516101d59190611bde565b348015610441575f80fd5b5061018f610450366004611c6b565b611574565b348015610460575f80fd5b5061047461046f3660046119af565b611684565b60408051825181526020808401519082015291810151908201526060016101d5565b805f036104b65760405163162908e360e11b815260040160405180910390fd5b335f9081526008602090815260408083206001600160a01b038616845290915290205481111561053557335f9081526008602090815260408083206001600160a01b03861680855292529182902054915163db42144d60e01b815260048101919091526024810183905260448101919091526064015b60405180910390fd5b335f9081526008602090815260408083206001600160a01b038616845290915281208054839290610567908490611cc2565b90915550506001600160a01b0382166105e6576040515f90339083908381818185875af1925050503d805f81146105b9576040519150601f19603f3d011682016040523d82523d5f602084013e6105be565b606091505b50509050806105e0576040516312171d8360e31b815260040160405180910390fd5b50610678565b60405163a9059cbb60e01b8152336004820152602481018290525f906001600160a01b0384169063a9059cbb906044016020604051808303815f875af1158015610632573d5f803e3d5ffd5b505050506040513d601f19601f820116820180604052508101906106569190611cd5565b905080610676576040516312171d8360e31b815260040160405180910390fd5b505b6040518181526001600160a01b0383169033907f8210728e7c071f615b840ee026032693858fbcd5e5359e67e438c890f59e5620906020015b60405180910390a35050565b6060306001600160a01b0316630c0a9f9d6040518163ffffffff1660e01b81526004015f60405180830381865afa1580156106fa573d5f803e3d5ffd5b505050506040513d5f823e601f3d908101601f191682016040526107219190810190611e08565b905090565b604051630c0e0cef60e01b81526001600160a01b038316600482015281151560248201523090630c0e0cef906044015f604051808303815f87803b15801561076c575f80fd5b505af115801561077e573d5f803e3d5ffd5b5050604051630c0e0cef60e01b81526001600160a01b03851660048201528315156024820152309250630c0e0cef91506044015f604051808303815f87803b1580156107c8575f80fd5b505af11580156107da573d5f803e3d5ffd5b505060405183151581526001600160a01b03851692503391507f2784db7c10de00e8c3890c487e9e79afeb92e0bf821da2cbd6f93c8405eae716906020016106b1565b815f0361083d5760405163162908e360e11b815260040160405180910390fd5b805f0361085d5760405163e3c2448f60e01b815260040160405180910390fd5b6040805160808101825283815260208082018490525f828401819052600160608401523381526004909152829020915190919061089d9087908790611f35565b9081526040805160209281900383018120845181559284015160018401559083015160028301556060909201516003909101805460ff191691151591909117905533907f72a0e573bfd5518a883388e46bcc8a5ecd3d5188f8a297eb72b2ce6a57ba873890610913908790879087908790611f6c565b60405180910390a250505050565b60405163ba7b128160e01b81523360048201526001600160a01b03821660248201525f90309063ba7b128190604401602060405180830381865afa15801561096b573d5f803e3d5ffd5b505050506040513d601f19601f8201168201806040525081019061098f9190611cd5565b92915050565b335f8181526007602052604090819020839055517f7bbba3916eaf2d72d65b283451781d64eeb7f583f400df2ff88949133ed70ea6906109d89084815260200190565b60405180910390a250565b335f90815260016020526040908190209051829190610a059086908690611f35565b9081526040519081900360200181209190915533907fb5d8acf536c4b8d083f20560e76e3b2c64a9ba6f3e346e115e3dd132fa30598390610a4b90869086908690611f92565b60405180910390a2505050565b610a8160405180608001604052805f81526020015f81526020015f81526020015f151581525090565b335f90815260046020526040908190209051610aa09085908590611f35565b908152604080519182900360209081018320608084018352805484526001810154918401919091526002810154918301919091526003015460ff1615156060820152905092915050565b335f8181526006602052604090819020839055517f60a8d8ac19270597863d1efedbaa6108b5b906883dcfe8196c789455ba7f7e4f906109d89084815260200190565b805f03610b4d5760405163162908e360e11b815260040160405180910390fd5b60405163ba7b128160e01b81523360048201526001600160a01b0383166024820152309063ba7b128190604401602060405180830381865afa158015610b95573d5f803e3d5ffd5b505050506040513d601f19601f82011682018060405250810190610bb99190611cd5565b610be15760405163029fee6760e31b81526001600160a01b038316600482015260240161052c565b6001600160a01b038216610c3857803414610c335760405162461bcd60e51b8152602060048201526012602482015271125b9d985b1a590811551208185b5bdd5b9d60721b604482015260640161052c565b610cd0565b6040516323b872dd60e01b8152336004820152306024820152604481018290525f906001600160a01b038416906323b872dd906064016020604051808303815f875af1158015610c8a573d5f803e3d5ffd5b505050506040513d601f19601f82011682018060405250810190610cae9190611cd5565b905080610cce576040516312171d8360e31b815260040160405180910390fd5b505b335f9081526008602090815260408083206001600160a01b038616845290915281208054839290610d02908490611710565b90915550506040518181526001600160a01b0383169033907ff1444b5cad7ce70cb018d1b8edc8618fe303f3c7f034d8d572a6e27facbf2bef906020016106b1565b335f90815260046020526040908190209051829190610d669086908690611f35565b908152604051908190036020018120600301805492151560ff199093169290921790915533907f0c1dfcddae850f59ee0c26682105ecd6be98acb1ca2981a4afbc06c579414e7290610a4b90869086908690611fb5565b6060306001600160a01b03166383a36a916040518163ffffffff1660e01b81526004015f60405180830381865afa158015610dfa573d5f803e3d5ffd5b505050506040513d5f823e601f3d908101601f191682016040526107219190810190611fda565b845f03610e415760405163162908e360e11b815260040160405180910390fd5b60405163ba7b128160e01b81523360048201526001600160a01b0387166024820152309063ba7b128190604401602060405180830381865afa158015610e89573d5f803e3d5ffd5b505050506040513d601f19601f82011682018060405250810190610ead9190611cd5565b610ed55760405163029fee6760e31b81526001600160a01b038716600482015260240161052c565b60405163b77ab73b60e01b8152309063b77ab73b90610f02908990899089908990899089906004016120fa565b5f604051808303815f87803b158015610f19575f80fd5b505af1158015610f2b573d5f803e3d5ffd5b50505050505050505050565b60405163ba7b128160e01b81526001600160a01b038084166004830152821660248201525f908190309063ba7b128190604401602060405180830381865afa158015610f85573d5f803e3d5ffd5b505050506040513d601f19601f82011682018060405250810190610fa99190611cd5565b60405163ba7b128160e01b81526001600160a01b038087166004830152851660248201529091505f90309063ba7b128190604401602060405180830381865afa158015610ff8573d5f803e3d5ffd5b505050506040513d601f19601f8201168201806040525081019061101c9190611cd5565b90508180156110285750805b95945050505050565b61105f6040518060a00160405280606081526020015f81526020015f81526020015f81526020015f81525090565b5f306001600160a01b03166383a36a916040518163ffffffff1660e01b81526004015f60405180830381865afa15801561109b573d5f803e3d5ffd5b505050506040513d5f823e601f3d908101601f191682016040526110c29190810190611fda565b90505f306001600160a01b0316630c0a9f9d6040518163ffffffff1660e01b81526004015f60405180830381865afa158015611100573d5f803e3d5ffd5b505050506040513d5f823e601f3d908101601f191682016040526111279190810190611e08565b90505f805f84516001600160401b0381111561114557611145611cf0565b60405190808252806020026020018201604052801561117857816020015b60608152602001906001900390816111635790505b5090505f85516001600160401b0381111561119557611195611cf0565b6040519080825280602002602001820160405280156111be578160200160208202803683370190505b5090505f85516001600160401b038111156111db576111db611cf0565b60405190808252806020026020018201604052801561120e57816020015b60608152602001906001900390816111f95790505b5090505f86516001600160401b0381111561122b5761122b611cf0565b604051908082528060200260200182016040528015611254578160200160208202803683370190505b5090505f5b8851811015611336575f805b888110156112d3578a838151811061127f5761127f612141565b602002602001015160400151805190602001208782815181106112a4576112a4612141565b602002602001015180519060200120036112c157600191506112d3565b806112cb81612155565b915050611265565b5080611323578982815181106112eb576112eb612141565b60200260200101516040015186898151811061130957611309612141565b6020026020010181905250878061131f90612155565b9850505b508061132e81612155565b915050611259565b505f5b8751811015611416575f805b878110156113b35789838151811061135f5761135f612141565b6020026020010151604001518051906020012085828151811061138457611384612141565b602002602001015180519060200120036113a157600191506113b3565b806113ab81612155565b915050611345565b5080611403578882815181106113cb576113cb612141565b6020026020010151604001518488815181106113e9576113e9612141565b602002602001018190525086806113ff90612155565b9750505b508061140e81612155565b915050611339565b5060408051600a80825261016082019092525f91816020015b604080518082019091525f808252602082015281526020019060019003908161142f5790505090505f8061146d604080515f81526020810190915290565b90505f5b8151811015611523575f82828151811061148d5761148d612141565b602090810291909101810151335f9081526008835260408082206001600160a01b03841683529093529190912054909150801561150e576040518060400160405280836001600160a01b03168152602001828152508686815181106114f4576114f4612141565b6020026020010181905250848061150a90612155565b9550505b5050808061151b90612155565b915050611471565b505081526040805160a08101825291825260208083019890985281810196909652335f8181526006895287812054606084015290815260079097529490952054608085015250919695505050505050565b825f036115945760405163162908e360e11b815260040160405180910390fd5b60405163ba7b128160e01b81523360048201526001600160a01b0385166024820152309063ba7b128190604401602060405180830381865afa1580156115dc573d5f803e3d5ffd5b505050506040513d601f19601f820116820180604052508101906116009190611cd5565b6116285760405163029fee6760e31b81526001600160a01b038516600482015260240161052c565b6040516367824b4d60e11b8152309063cf04969a9061165190879087908790879060040161216d565b5f604051808303815f87803b158015611668575f80fd5b505af115801561167a573d5f803e3d5ffd5b5050505050505050565b6116a560405180606001604052805f81526020015f81526020015f81525090565b335f908152600160205260409081902090516116c49085908590611f35565b908152604080519182900360209081018320606084018352805484526001810154918401919091526002015490820152905092915050565b634e487b7160e01b5f52601160045260245ffd5b8082018082111561098f5761098f6116fc565b6001600160a01b0381168114611737575f80fd5b50565b5f806040838503121561174b575f80fd5b823561175681611723565b946020939093013593505050565b5f5b8381101561177e578181015183820152602001611766565b50505f910152565b5f815180845261179d816020860160208601611764565b601f01601f19169290920160200192915050565b5f6020808301818452808551808352604092508286019150828160051b8701018488015f5b8381101561184d57888303603f19018552815180516001600160a01b0316845287810151888501528681015160c08886018190529061181782870182611786565b6060848101519088015260808085015115159088015260a0938401519390960192909252505093860193908601906001016117d6565b509098975050505050505050565b8015158114611737575f80fd5b5f8060408385031215611879575f80fd5b823561188481611723565b915060208301356118948161185b565b809150509250929050565b5f8083601f8401126118af575f80fd5b5081356001600160401b038111156118c5575f80fd5b6020830191508360208285010111156118dc575f80fd5b9250929050565b5f805f80606085870312156118f6575f80fd5b84356001600160401b0381111561190b575f80fd5b6119178782880161189f565b90989097506020870135966040013595509350505050565b5f6020828403121561193f575f80fd5b813561194a81611723565b9392505050565b5f60208284031215611961575f80fd5b5035919050565b5f805f6040848603121561197a575f80fd5b83356001600160401b0381111561198f575f80fd5b61199b8682870161189f565b909790965060209590950135949350505050565b5f80602083850312156119c0575f80fd5b82356001600160401b038111156119d5575f80fd5b6119e18582860161189f565b90969095509350505050565b602080825282518282018190525f9190848201906040850190845b81811015611a2d5783516001600160a01b031683529284019291840191600101611a08565b50909695505050505050565b5f805f60408486031215611a4b575f80fd5b83356001600160401b03811115611a60575f80fd5b611a6c8682870161189f565b9094509250506020840135611a808161185b565b809150509250925092565b5f6020808301818452808551808352604092508286019150828160051b8701018488015f5b8381101561184d57888303603f19018552815180516001600160a01b0316845287810151888501528681015160a088860181905290611af182870182611786565b915050606080830151818701525060808083015192508582038187015250611b198183611786565b968901969450505090860190600101611ab0565b5f805f805f8060808789031215611b42575f80fd5b8635611b4d81611723565b95506020870135945060408701356001600160401b0380821115611b6f575f80fd5b611b7b8a838b0161189f565b90965094506060890135915080821115611b93575f80fd5b50611ba089828a0161189f565b979a9699509497509295939492505050565b5f8060408385031215611bc3575f80fd5b8235611bce81611723565b9150602083013561189481611723565b6020808252825160a083830152805160c084018190525f9291820190839060e08601905b80831015611c3657835180516001600160a01b03168352850151858301529284019260019290920191604090910190611c02565b508387015160408701526040870151606087015260608701516080870152608087015160a08701528094505050505092915050565b5f805f8060608587031215611c7e575f80fd5b8435611c8981611723565b93506020850135925060408501356001600160401b03811115611caa575f80fd5b611cb68782880161189f565b95989497509550505050565b8181038181111561098f5761098f6116fc565b5f60208284031215611ce5575f80fd5b815161194a8161185b565b634e487b7160e01b5f52604160045260245ffd5b60405160c081016001600160401b0381118282101715611d2657611d26611cf0565b60405290565b60405160a081016001600160401b0381118282101715611d2657611d26611cf0565b604051601f8201601f191681016001600160401b0381118282101715611d7657611d76611cf0565b604052919050565b5f6001600160401b03821115611d9657611d96611cf0565b5060051b60200190565b5f82601f830112611daf575f80fd5b81516001600160401b03811115611dc857611dc8611cf0565b611ddb601f8201601f1916602001611d4e565b818152846020838601011115611def575f80fd5b611e00826020830160208701611764565b949350505050565b5f6020808385031215611e19575f80fd5b82516001600160401b0380821115611e2f575f80fd5b818501915085601f830112611e42575f80fd5b8151611e55611e5082611d7e565b611d4e565b81815260059190911b83018401908481019088831115611e73575f80fd5b8585015b83811015611f2857805185811115611e8d575f80fd5b860160c0818c03601f19011215611ea3575f8081fd5b611eab611d04565b88820151611eb881611723565b81526040828101518a83015260608084015189811115611ed7575f8081fd5b611ee58f8d83880101611da0565b83850152506080915081840151818401525060a080840151611f068161185b565b9183019190915260c09290920151918101919091528352918601918601611e77565b5098975050505050505050565b818382375f9101908152919050565b81835281816020850137505f828201602090810191909152601f909101601f19169091010190565b606081525f611f7f606083018688611f44565b6020830194909452506040015292915050565b604081525f611fa5604083018587611f44565b9050826020830152949350505050565b604081525f611fc8604083018587611f44565b90508215156020830152949350505050565b5f6020808385031215611feb575f80fd5b82516001600160401b0380821115612001575f80fd5b818501915085601f830112612014575f80fd5b8151612022611e5082611d7e565b81815260059190911b83018401908481019088831115612040575f80fd5b8585015b83811015611f285780518581111561205a575f80fd5b860160a0818c03601f19011215612070575f8081fd5b612078611d2c565b8882015161208581611723565b81526040828101518a830152606080840151898111156120a4575f8081fd5b6120b28f8d83880101611da0565b83850152506080915081840151818401525060a0830151888111156120d6575f8081fd5b6120e48e8c83870101611da0565b9183019190915250845250918601918601612044565b60018060a01b0387168152856020820152608060408201525f612121608083018688611f44565b8281036060840152612134818587611f44565b9998505050505050505050565b634e487b7160e01b5f52603260045260245ffd5b5f60018201612166576121666116fc565b5060010190565b60018060a01b0385168152836020820152606060408201525f612194606083018486611f44565b969550505050505056fea26469706673582212205d19a3a592f5e47b5ec81a6fd2bfa7bd7b759e6deecb14c27d45c698d203dc9764736f6c63430008150033","linkReferences":{}},"methodIdentifiers":{"addExpense(address,uint256,string,string)":"b77ab73b","addIncome(address,uint256,string)":"cf04969a","approveToken(address,bool)":"0c0e0cef","depositTokens(address,uint256)":"66168bd7","getApprovedTokens()":"6afc0c5f","getBudgetSummary()":"bfb6416a","getCategoryBudget(string)":"df2eec7a","getExpenses()":"83a36a91","getIncomes()":"0c0a9f9d","getRecurringIncome(string)":"4a6d9216","isApprovedToken(address)":"2d5ad3d5","isTokenApproved(address,address)":"ba7b1281","monthlyExpenseLimits(address)":"8f517e6d","registerRecurringIncome(string,uint256,uint256)":"245372a9","savingsGoals(address)":"2b4d33b4","setCategoryBudget(string,uint256)":"3dd211c0","setMonthlyExpenseLimit(uint256)":"53ae5f17","setSavingsGoal(uint256)":"31a93e8a","updateRecurringIncome(string,bool)":"82e13e48","withdrawTokens(address,uint256)":"06b091f9"},"id":21}