{"abi":[{"type":"function","name":"allowance","inputs":[{"name":"owner","type":"address","internalType":"address"},{"name":"spender","type":"address","internalType":"address"}],"outputs":[{"name":"","type":"uint256","internalType":"uint256"}],"stateMutability":"view"},{"type":"function","name":"approve","inputs":[{"name":"spender","type":"address","internalType":"address"},{"name":"amount","type":"uint256","internalType":"uint256"}],"outputs":[{"name":"","type":"bool","internalType":"bool"}],"stateMutability":"nonpayable"},{"type":"function","name":"balanceOf","inputs":[{"name":"account","type":"address","internalType":"address"}],"outputs":[{"name":"","type":"uint256","internalType":"uint256"}],"stateMutability":"view"},{"type":"function","name":"mint","inputs":[{"name":"to","type":"address","internalType":"address"},{"name":"amount","type":"uint256","internalType":"uint256"}],"outputs":[],"stateMutability":"nonpayable"},{"type":"function","name":"totalSupply","inputs":[],"outputs":[{"name":"","type":"uint256","internalType":"uint256"}],"stateMutability":"view"},{"type":"function","name":"transfer","inputs":[{"name":"to","type":"address","internalType":"address"},{"name":"amount","type":"uint256","internalType":"uint256"}],"outputs":[{"name":"","type":"bool","internalType":"bool"}],"stateMutability":"nonpayable"},{"type":"function","name":"transferFrom","inputs":[{"name":"from","type":"address","internalType":"address"},{"name":"to","type":"address","internalType":"address"},{"name":"amount","type":"uint256","internalType":"uint256"}],"outputs":[{"name":"","type":"bool","internalType":"bool"}],"stateMutability":"nonpayable"},{"type":"event","name":"Approval","inputs":[{"name":"owner","type":"address","indexed":true,"internalType":"address"},{"name":"spender","type":"address","indexed":true,"internalType":"address"},{"name":"value","type":"uint256","indexed":false,"internalType":"uint256"}],"anonymous":false},{"type":"event","name":"Transfer","inputs":[{"name":"from","type":"address","indexed":true,"internalType":"address"},{"name":"to","type":"address","indexed":true,"internalType":"address"},{"name":"value","type":"uint256","indexed":false,"internalType":"uint256"}],"anonymous":false}],"bytecode":{"object":"0x608060405234801561000f575f80fd5b506105298061001d5f395ff3fe608060405234801561000f575f80fd5b506004361061007a575f3560e01c806340c10f191161005857806340c10f19146100cb57806370a08231146100e0578063a9059cbb14610108578063dd62ed3e1461011b575f80fd5b8063095ea7b31461007e57806318160ddd146100a657806323b872dd146100b8575b5f80fd5b61009161008c366004610407565b610153565b60405190151581526020015b60405180910390f35b6002545b60405190815260200161009d565b6100916100c636600461042f565b6101bf565b6100de6100d9366004610407565b610316565b005b6100aa6100ee366004610468565b6001600160a01b03165f9081526020819052604090205490565b610091610116366004610407565b61035e565b6100aa610129366004610488565b6001600160a01b039182165f90815260016020908152604080832093909416825291909152205490565b335f8181526001602090815260408083206001600160a01b038716808552925280832085905551919290917f8c5be1e5ebec7d5bd14f71427d1e84f3dd0314c0f7b2291e5b200ac8c7c3b925906101ad9086815260200190565b60405180910390a35060015b92915050565b6001600160a01b0383165f90815260016020908152604080832033845290915281205482111561022e5760405162461bcd60e51b8152602060048201526016602482015275496e73756666696369656e7420616c6c6f77616e636560501b604482015260640160405180910390fd5b6001600160a01b0384165f908152600160209081526040808320338452909152812080548492906102609084906104cd565b90915550506001600160a01b0384165f908152602081905260408120805484929061028c9084906104cd565b90915550506001600160a01b0383165f90815260208190526040812080548492906102b89084906104e0565b92505081905550826001600160a01b0316846001600160a01b03167fddf252ad1be2c89b69c2b068fc378daa952ba7f163c4a11628f55a4df523b3ef8460405161030491815260200190565b60405180910390a35060019392505050565b6001600160a01b0382165f908152602081905260408120805483929061033d9084906104e0565b925050819055508060025f82825461035591906104e0565b90915550505050565b335f9081526020819052604081208054839190839061037e9084906104cd565b90915550506001600160a01b0383165f90815260208190526040812080548492906103aa9084906104e0565b90915550506040518281526001600160a01b0384169033907fddf252ad1be2c89b69c2b068fc378daa952ba7f163c4a11628f55a4df523b3ef906020016101ad565b80356001600160a01b0381168114610402575f80fd5b919050565b5f8060408385031215610418575f80fd5b610421836103ec565b946020939093013593505050565b5f805f60608486031215610441575f80fd5b61044a846103ec565b9250610458602085016103ec565b9150604084013590509250925092565b5f60208284031215610478575f80fd5b610481826103ec565b9392505050565b5f8060408385031215610499575f80fd5b6104a2836103ec565b91506104b0602084016103ec565b90509250929050565b634e487b7160e01b5f52601160045260245ffd5b818103818111156101b9576101b96104b9565b808201808211156101b9576101b96104b956fea26469706673582212207d7cd3d7732c71dcc922fecb1cab0cdc3a5890c87765c367cec492595c0429d164736f6c63430008150033","linkReferences":{}},"methodIdentifiers":{"allowance(address,address)":"dd62ed3e","approve(address,uint256)":"095ea7b3","balanceOf(address)":"70a08231","mint(address,uint256)":"40c10f19","totalSupply()":"18160ddd","transfer(address,uint256)":"a9059cbb","transferFrom(address,address,uint256)":"23b872dd"},"id":32}