{"abi":[{"type":"constructor","inputs":[],"stateMutability":"nonpayable"},{"type":"function","name":"addIncome","inputs":[{"name":"token","type":"address","internalType":"address"},{"name":"amount","type":"uint256","internalType":"uint256"},{"name":"source","type":"string","internalType":"string"}],"outputs":[],"stateMutability":"nonpayable"},{"type":"function","name":"approveToken","inputs":[{"name":"token","type":"address","internalType":"address"},{"name":"approved","type":"bool","internalType":"bool"}],"outputs":[],"stateMutability":"nonpayable"},{"type":"function","name":"getIncomes","inputs":[],"outputs":[{"name":"","type":"tuple[]","internalType":"struct IncomeTracker.Income[]","components":[{"name":"token","type":"address","internalType":"address"},{"name":"amount","type":"uint256","internalType":"uint256"},{"name":"source","type":"string","internalType":"string"},{"name":"date","type":"uint256","internalType":"uint256"},{"name":"isRecurring","type":"bool","internalType":"bool"},{"name":"frequency","type":"uint256","internalType":"uint256"}]}],"stateMutability":"view"},{"type":"function","name":"getRecurringIncome","inputs":[{"name":"source","type":"string","internalType":"string"}],"outputs":[{"name":"","type":"tuple","internalType":"struct IncomeTracker.RecurringIncome","components":[{"name":"expectedAmount","type":"uint256","internalType":"uint256"},{"name":"frequency","type":"uint256","internalType":"uint256"},{"name":"lastReceived","type":"uint256","internalType":"uint256"},{"name":"isActive","type":"bool","internalType":"bool"}]}],"stateMutability":"view"},{"type":"function","name":"isTokenApproved","inputs":[{"name":"user","type":"address","internalType":"address"},{"name":"token","type":"address","internalType":"address"}],"outputs":[{"name":"","type":"bool","internalType":"bool"}],"stateMutability":"view"},{"type":"function","name":"registerRecurringIncome","inputs":[{"name":"source","type":"string","internalType":"string"},{"name":"expectedAmount","type":"uint256","internalType":"uint256"},{"name":"frequency","type":"uint256","internalType":"uint256"}],"outputs":[],"stateMutability":"nonpayable"},{"type":"function","name":"updateRecurringIncome","inputs":[{"name":"source","type":"string","internalType":"string"},{"name":"isActive","type":"bool","internalType":"bool"}],"outputs":[],"stateMutability":"nonpayable"},{"type":"event","name":"IncomeAdded","inputs":[{"name":"user","type":"address","indexed":true,"internalType":"address"},{"name":"token","type":"address","indexed":true,"internalType":"address"},{"name":"amount","type":"uint256","indexed":false,"internalType":"uint256"},{"name":"source","type":"string","indexed":false,"internalType":"string"},{"name":"date","type":"uint256","indexed":false,"internalType":"uint256"},{"name":"isRecurring","type":"bool","indexed":false,"internalType":"bool"}],"anonymous":false},{"type":"event","name":"RecurringIncomeRegistered","inputs":[{"name":"user","type":"address","indexed":true,"internalType":"address"},{"name":"source","type":"string","indexed":false,"internalType":"string"},{"name":"expectedAmount","type":"uint256","indexed":false,"internalType":"uint256"},{"name":"frequency","type":"uint256","indexed":false,"internalType":"uint256"}],"anonymous":false},{"type":"event","name":"RecurringIncomeUpdated","inputs":[{"name":"user","type":"address","indexed":true,"internalType":"address"},{"name":"source","type":"string","indexed":false,"internalType":"string"},{"name":"isActive","type":"bool","indexed":false,"internalType":"bool"}],"anonymous":false},{"type":"error","name":"InvalidAmount","inputs":[]},{"type":"error","name":"InvalidFrequency","inputs":[]},{"type":"error","name":"TransferFailed","inputs":[]},{"type":"error","name":"UnapprovedToken","inputs":[{"name":"token","type":"address","internalType":"address"}]}],"bytecode":{"object":"0x608060405234801561000f575f80fd5b50610c618061001d5f395ff3fe608060405234801561000f575f80fd5b506004361061007a575f3560e01c80634a6d9216116100585780634a6d9216146100f657806382e13e481461013e578063ba7b128114610151578063cf04969a1461019c575f80fd5b80630c0a9f9d1461007e5780630c0e0cef1461009c578063245372a9146100e3575b5f80fd5b6100866101af565b6040516100939190610738565b60405180910390f35b6100e16100aa366004610851565b335f9081526002602090815260408083206001600160a01b0395909516835293905291909120805460ff1916911515919091179055565b005b6100e16100f13660046108c7565b6102ee565b610109610104366004610914565b6103f2565b604051610093919081518152602080830151908201526040808301519082015260609182015115159181019190915260800190565b6100e161014c366004610953565b610484565b61018c61015f3660046109a3565b6001600160a01b039182165f90815260026020908152604080832093909416825291909152205460ff1690565b6040519015158152602001610093565b6100e16101aa3660046109cb565b61050a565b335f90815260208181526040808320805482518185028101850190935280835260609492939192909184015b828210156102e5575f8481526020908190206040805160c0810182526006860290920180546001600160a01b031683526001810154938301939093526002830180549293929184019161022d90610a21565b80601f016020809104026020016040519081016040528092919081815260200182805461025990610a21565b80156102a45780601f1061027b576101008083540402835291602001916102a4565b820191905f5260205f20905b81548152906001019060200180831161028757829003601f168201915b50505091835250506003820154602080830191909152600483015460ff161515604083015260059092015460609091015290825260019290920191016101db565b50505050905090565b815f0361030e5760405163162908e360e11b815260040160405180910390fd5b805f0361032e5760405163e3c2448f60e01b815260040160405180910390fd5b6040805160808101825283815260208082018490525f828401819052600160608401819052338252909152829020915190919061036e9087908790610a59565b9081526040805160209281900383018120845181559284015160018401559083015160028301556060909201516003909101805460ff191691151591909117905533907f72a0e573bfd5518a883388e46bcc8a5ecd3d5188f8a297eb72b2ce6a57ba8738906103e4908790879087908790610a90565b60405180910390a250505050565b61041b60405180608001604052805f81526020015f81526020015f81526020015f151581525090565b335f9081526001602052604090819020905161043a9085908590610a59565b908152604080519182900360209081018320608084018352805484526001810154918401919091526002810154918301919091526003015460ff1615156060820152905092915050565b335f908152600160205260409081902090518291906104a69086908690610a59565b908152604051908190036020018120600301805492151560ff199093169290921790915533907f0c1dfcddae850f59ee0c26682105ecd6be98acb1ca2981a4afbc06c579414e72906104fd90869086908690610ab6565b60405180910390a2505050565b825f0361052a5760405163162908e360e11b815260040160405180910390fd5b335f9081526002602090815260408083206001600160a01b038816845290915290205460ff1661057c5760405163029fee6760e31b81526001600160a01b038516600482015260240160405180910390fd5b335f90815260016020526040808220905161059a9085908590610a59565b9081526040519081900360200190206003810154600182015491925060ff169081156105c7574260028401555b5f80336001600160a01b03166001600160a01b031681526020019081526020015f206040518060c00160405280896001600160a01b0316815260200188815260200187878080601f0160208091040260200160405190810160405280939291908181526020018383808284375f920182905250938552505042602080850191909152871515604080860191909152606090940187905285546001808201885596845292819020855160069094020180546001600160a01b0319166001600160a01b0390941693909317835584015194820194909455908201519192509060028201906106b39082610b3d565b5060608201516003820155608082015160048201805460ff191691151591909117905560a0909101516005909101556040516001600160a01b0388169033907f85ac93c8ade48b3821eded729ba2459f21874ea47393da7e24a0193ec970bb1690610727908a908a908a9042908a90610bf9565b60405180910390a350505050505050565b5f6020808301818452808551808352604092508286019150828160051b8701018488015f805b8481101561081857898403603f19018652825180516001600160a01b0316855288810151898601528781015160c089870181905281519087018190528491905b808310156107bc578183018c015188840160e00152918b019161079e565b60e092508583828a01015260609150818401518289015260809150818401516107e8838a018215159052565b5060a093840151938801939093525096890196601f91909101601f1916909401909301929187019160010161075e565b50919998505050505050505050565b80356001600160a01b038116811461083d575f80fd5b919050565b8035801515811461083d575f80fd5b5f8060408385031215610862575f80fd5b61086b83610827565b915061087960208401610842565b90509250929050565b5f8083601f840112610892575f80fd5b50813567ffffffffffffffff8111156108a9575f80fd5b6020830191508360208285010111156108c0575f80fd5b9250929050565b5f805f80606085870312156108da575f80fd5b843567ffffffffffffffff8111156108f0575f80fd5b6108fc87828801610882565b90989097506020870135966040013595509350505050565b5f8060208385031215610925575f80fd5b823567ffffffffffffffff81111561093b575f80fd5b61094785828601610882565b90969095509350505050565b5f805f60408486031215610965575f80fd5b833567ffffffffffffffff81111561097b575f80fd5b61098786828701610882565b909450925061099a905060208501610842565b90509250925092565b5f80604083850312156109b4575f80fd5b6109bd83610827565b915061087960208401610827565b5f805f80606085870312156109de575f80fd5b6109e785610827565b935060208501359250604085013567ffffffffffffffff811115610a09575f80fd5b610a1587828801610882565b95989497509550505050565b600181811c90821680610a3557607f821691505b602082108103610a5357634e487b7160e01b5f52602260045260245ffd5b50919050565b818382375f9101908152919050565b81835281816020850137505f828201602090810191909152601f909101601f19169091010190565b606081525f610aa3606083018688610a68565b6020830194909452506040015292915050565b604081525f610ac9604083018587610a68565b90508215156020830152949350505050565b634e487b7160e01b5f52604160045260245ffd5b601f821115610b38575f81815260208120601f850160051c81016020861015610b155750805b601f850160051c820191505b81811015610b3457828155600101610b21565b5050505b505050565b815167ffffffffffffffff811115610b5757610b57610adb565b610b6b81610b658454610a21565b84610aef565b602080601f831160018114610b9e575f8415610b875750858301515b5f19600386901b1c1916600185901b178555610b34565b5f85815260208120601f198616915b82811015610bcc57888601518255948401946001909101908401610bad565b5085821015610be957878501515f19600388901b60f8161c191681555b5050505050600190811b01905550565b858152608060208201525f610c12608083018688610a68565b604083019490945250901515606090910152939250505056fea26469706673582212206e57e39ddeaae1bc996f9588494c48e638236a649750fc2b8a84e13b51e4f39764736f6c63430008150033","linkReferences":{}},"methodIdentifiers":{"addIncome(address,uint256,string)":"cf04969a","approveToken(address,bool)":"0c0e0cef","getIncomes()":"0c0a9f9d","getRecurringIncome(string)":"4a6d9216","isTokenApproved(address,address)":"ba7b1281","registerRecurringIncome(string,uint256,uint256)":"245372a9","updateRecurringIncome(string,bool)":"82e13e48"},"id":23}